{
  "_format": "hh-sol-artifact-1",
  "contractName": "SwapAB",
  "sourceName": "contracts/SwapAB.sol",
  "abi": [
    {
      "inputs": [
        {
          "internalType": "contract MinimalForwarder",
          "name": "forwarder",
          "type": "address"
        },
        {
          "internalType": "address",
          "name": "_tokenA",
          "type": "address"
        },
        {
          "internalType": "address",
          "name": "_tokenB",
          "type": "address"
        },
        {
          "internalType": "uint256",
          "name": "_rateAtoB",
          "type": "uint256"
        }
      ],
      "stateMutability": "nonpayable",
      "type": "constructor"
    },
    {
      "anonymous": false,
      "inputs": [
        {
          "indexed": true,
          "internalType": "address",
          "name": "previousOwner",
          "type": "address"
        },
        {
          "indexed": true,
          "internalType": "address",
          "name": "newOwner",
          "type": "address"
        }
      ],
      "name": "OwnershipTransferred",
      "type": "event"
    },
    {
      "inputs": [
        {
          "internalType": "address",
          "name": "forwarder",
          "type": "address"
        }
      ],
      "name": "isTrustedForwarder",
      "outputs": [
        {
          "internalType": "bool",
          "name": "",
          "type": "bool"
        }
      ],
      "stateMutability": "view",
      "type": "function"
    },
    {
      "inputs": [],
      "name": "owner",
      "outputs": [
        {
          "internalType": "address",
          "name": "",
          "type": "address"
        }
      ],
      "stateMutability": "view",
      "type": "function"
    },
    {
      "inputs": [],
      "name": "rateAtoB",
      "outputs": [
        {
          "internalType": "uint256",
          "name": "",
          "type": "uint256"
        }
      ],
      "stateMutability": "view",
      "type": "function"
    },
    {
      "inputs": [],
      "name": "renounceOwnership",
      "outputs": [],
      "stateMutability": "nonpayable",
      "type": "function"
    },
    {
      "inputs": [
        {
          "internalType": "uint256",
          "name": "amountOfA",
          "type": "uint256"
        }
      ],
      "name": "swapAtoB",
      "outputs": [],
      "stateMutability": "nonpayable",
      "type": "function"
    },
    {
      "inputs": [
        {
          "internalType": "uint256",
          "name": "amountOfB",
          "type": "uint256"
        }
      ],
      "name": "swapBtoA",
      "outputs": [],
      "stateMutability": "nonpayable",
      "type": "function"
    },
    {
      "inputs": [],
      "name": "tokenA",
      "outputs": [
        {
          "internalType": "contract IERC20",
          "name": "",
          "type": "address"
        }
      ],
      "stateMutability": "view",
      "type": "function"
    },
    {
      "inputs": [],
      "name": "tokenB",
      "outputs": [
        {
          "internalType": "contract IERC20",
          "name": "",
          "type": "address"
        }
      ],
      "stateMutability": "view",
      "type": "function"
    },
    {
      "inputs": [
        {
          "internalType": "address",
          "name": "newOwner",
          "type": "address"
        }
      ],
      "name": "transferOwnership",
      "outputs": [],
      "stateMutability": "nonpayable",
      "type": "function"
    },
    {
      "inputs": [
        {
          "internalType": "uint256",
          "name": "_rateAtoB",
          "type": "uint256"
        }
      ],
      "name": "updateRate",
      "outputs": [],
      "stateMutability": "nonpayable",
      "type": "function"
    }
  ],
  "bytecode": "0x60a060405234801561001057600080fd5b506040516108d73803806108d783398101604081905261002f9161013f565b6001600160a01b03841660805261004c610047610085565b61009e565b600180546001600160a01b039485166001600160a01b031991821617909155600280549390941692169190911790915560035550610192565b60006100996100ee60201b61047b1760201c565b905090565b600080546001600160a01b038381166001600160a01b0319831681178455604051919092169283917f8be0079c531659141344cd1fd0a4f28419497f9722a3daafe3b4186f6b6457e09190a35050565b6080516000906001600160a01b0316331415610111575060131936013560601c90565b61009961012360201b6104c51760201c565b3390565b6001600160a01b038116811461013c57600080fd5b50565b6000806000806080858703121561015557600080fd5b845161016081610127565b602086015190945061017181610127565b604086015190935061018281610127565b6060959095015193969295505050565b6080516107246101b36000396000818160e3015261047f01526107246000f3fe608060405234801561001057600080fd5b506004361061009e5760003560e01c80638da5cb5b116100665780638da5cb5b14610153578063da0d673514610164578063e0441df014610177578063e6420c231461018a578063f2fde38b146101a157600080fd5b80630fc63d10146100a3578063572b6c05146100d35780635f64b55b1461012357806369ea177114610136578063715018a61461014b575b600080fd5b6001546100b6906001600160a01b031681565b6040516001600160a01b0390911681526020015b60405180910390f35b6101136100e13660046105ff565b7f00000000000000000000000000000000000000000000000000000000000000006001600160a01b0390811691161490565b60405190151581526020016100ca565b6002546100b6906001600160a01b031681565b61014961014436600461062f565b6101b4565b005b61014961020b565b6000546001600160a01b03166100b6565b61014961017236600461062f565b610260565b61014961018536600461062f565b61037a565b61019360035481565b6040519081526020016100ca565b6101496101af3660046105ff565b6103c1565b6101bc6104c9565b6001600160a01b03166101d76000546001600160a01b031690565b6001600160a01b0316146102065760405162461bcd60e51b81526004016101fd90610648565b60405180910390fd5b600355565b6102136104c9565b6001600160a01b031661022e6000546001600160a01b031690565b6001600160a01b0316146102545760405162461bcd60e51b81526004016101fd90610648565b61025e60006104d3565b565b600060035482610270919061067d565b600154909150610292906001600160a01b031661028b6104c9565b3085610523565b6002546000906001600160a01b031663a9059cbb6102ae6104c9565b6040516001600160e01b031960e084901b1681526001600160a01b03909116600482015260248101859052604401602060405180830381600087803b1580156102f657600080fd5b505af115801561030a573d6000803e3d6000fd5b505050506040513d601f19601f8201168201806040525081019061032e919061069f565b9050806103755760405162461bcd60e51b8152602060048201526015602482015274151bdad95b881d1c985b9cd9995c8819985a5b1959605a1b60448201526064016101fd565b505050565b60006003548261038a91906106c1565b6002549091506103a5906001600160a01b031661028b6104c9565b6001546000906001600160a01b031663a9059cbb6102ae6104c9565b6103c96104c9565b6001600160a01b03166103e46000546001600160a01b031690565b6001600160a01b03161461040a5760405162461bcd60e51b81526004016101fd90610648565b6001600160a01b03811661046f5760405162461bcd60e51b815260206004820152602660248201527f4f776e61626c653a206e6577206f776e657220697320746865207a65726f206160448201526564647265737360d01b60648201526084016101fd565b610478816104d3565b50565b60007f00000000000000000000000000000000000000000000000000000000000000006001600160a01b03163314156104bb575060131936013560601c90565b503390565b905090565b3390565b60006104c061047b565b600080546001600160a01b038381166001600160a01b0319831681178455604051919092169283917f8be0079c531659141344cd1fd0a4f28419497f9722a3daafe3b4186f6b6457e09190a35050565b6040516323b872dd60e01b81526001600160a01b038481166004830152838116602483015260448201839052600091908616906323b872dd90606401602060405180830381600087803b15801561057957600080fd5b505af115801561058d573d6000803e3d6000fd5b505050506040513d601f19601f820116820180604052508101906105b1919061069f565b9050806105f85760405162461bcd60e51b8152602060048201526015602482015274151bdad95b881d1c985b9cd9995c8819985a5b1959605a1b60448201526064016101fd565b5050505050565b60006020828403121561061157600080fd5b81356001600160a01b038116811461062857600080fd5b9392505050565b60006020828403121561064157600080fd5b5035919050565b6020808252818101527f4f776e61626c653a2063616c6c6572206973206e6f7420746865206f776e6572604082015260600190565b60008261069a57634e487b7160e01b600052601260045260246000fd5b500490565b6000602082840312156106b157600080fd5b8151801515811461062857600080fd5b60008160001904831182151516156106e957634e487b7160e01b600052601160045260246000fd5b50029056fea2646970667358221220c7905ef9a8a44e756d5e7fb25abb7f2931f2770e7bf45f53485e89179bb9a6f564736f6c63430008090033",
  "linkReferences": {},
  "deployedLinkReferences": {},
  "address": "0x4d8b89E47dBd7443CD18B50A5E44D269478DCD85"
}