{"_format":"hh-sol-artifact-1","contractName":"TokenA","sourceName":"contracts/TokenA.sol","abi":[{"inputs":[{"internalType":"contract MinimalForwarder","name":"forwarder","type":"address"}],"stateMutability":"nonpayable","type":"constructor"},{"anonymous":false,"inputs":[{"indexed":true,"internalType":"address","name":"owner","type":"address"},{"indexed":true,"internalType":"address","name":"spender","type":"address"},{"indexed":false,"internalType":"uint256","name":"value","type":"uint256"}],"name":"Approval","type":"event"},{"anonymous":false,"inputs":[{"indexed":false,"internalType":"address","name":"account","type":"address"}],"name":"Paused","type":"event"},{"anonymous":false,"inputs":[{"indexed":true,"internalType":"bytes32","name":"role","type":"bytes32"},{"indexed":true,"internalType":"bytes32","name":"previousAdminRole","type":"bytes32"},{"indexed":true,"internalType":"bytes32","name":"newAdminRole","type":"bytes32"}],"name":"RoleAdminChanged","type":"event"},{"anonymous":false,"inputs":[{"indexed":true,"internalType":"bytes32","name":"role","type":"bytes32"},{"indexed":true,"internalType":"address","name":"account","type":"address"},{"indexed":true,"internalType":"address","name":"sender","type":"address"}],"name":"RoleGranted","type":"event"},{"anonymous":false,"inputs":[{"indexed":true,"internalType":"bytes32","name":"role","type":"bytes32"},{"indexed":true,"internalType":"address","name":"account","type":"address"},{"indexed":true,"internalType":"address","name":"sender","type":"address"}],"name":"RoleRevoked","type":"event"},{"anonymous":false,"inputs":[{"indexed":true,"internalType":"address","name":"from","type":"address"},{"indexed":true,"internalType":"address","name":"to","type":"address"},{"indexed":false,"internalType":"uint256","name":"value","type":"uint256"}],"name":"Transfer","type":"event"},{"anonymous":false,"inputs":[{"indexed":false,"internalType":"address","name":"account","type":"address"}],"name":"Unpaused","type":"event"},{"inputs":[],"name":"DEFAULT_ADMIN_ROLE","outputs":[{"internalType":"bytes32","name":"","type":"bytes32"}],"stateMutability":"view","type":"function"},{"inputs":[],"name":"MINTER_ROLE","outputs":[{"internalType":"bytes32","name":"","type":"bytes32"}],"stateMutability":"view","type":"function"},{"inputs":[],"name":"PAUSER_ROLE","outputs":[{"internalType":"bytes32","name":"","type":"bytes32"}],"stateMutability":"view","type":"function"},{"inputs":[{"internalType":"address","name":"owner","type":"address"},{"internalType":"address","name":"spender","type":"address"}],"name":"allowance","outputs":[{"internalType":"uint256","name":"","type":"uint256"}],"stateMutability":"view","type":"function"},{"inputs":[{"internalType":"address","name":"spender","type":"address"},{"internalType":"uint256","name":"amount","type":"uint256"}],"name":"approve","outputs":[{"internalType":"bool","name":"","type":"bool"}],"stateMutability":"nonpayable","type":"function"},{"inputs":[{"internalType":"address","name":"account","type":"address"}],"name":"balanceOf","outputs":[{"internalType":"uint256","name":"","type":"uint256"}],"stateMutability":"view","type":"function"},{"inputs":[{"internalType":"uint256","name":"amount","type":"uint256"}],"name":"burn","outputs":[],"stateMutability":"nonpayable","type":"function"},{"inputs":[{"internalType":"address","name":"account","type":"address"},{"internalType":"uint256","name":"amount","type":"uint256"}],"name":"burnFrom","outputs":[],"stateMutability":"nonpayable","type":"function"},{"inputs":[],"name":"decimals","outputs":[{"internalType":"uint8","name":"","type":"uint8"}],"stateMutability":"view","type":"function"},{"inputs":[{"internalType":"address","name":"spender","type":"address"},{"internalType":"uint256","name":"subtractedValue","type":"uint256"}],"name":"decreaseAllowance","outputs":[{"internalType":"bool","name":"","type":"bool"}],"stateMutability":"nonpayable","type":"function"},{"inputs":[{"internalType":"bytes32","name":"role","type":"bytes32"}],"name":"getRoleAdmin","outputs":[{"internalType":"bytes32","name":"","type":"bytes32"}],"stateMutability":"view","type":"function"},{"inputs":[{"internalType":"bytes32","name":"role","type":"bytes32"},{"internalType":"address","name":"account","type":"address"}],"name":"grantRole","outputs":[],"stateMutability":"nonpayable","type":"function"},{"inputs":[{"internalType":"bytes32","name":"role","type":"bytes32"},{"internalType":"address","name":"account","type":"address"}],"name":"hasRole","outputs":[{"internalType":"bool","name":"","type":"bool"}],"stateMutability":"view","type":"function"},{"inputs":[{"internalType":"address","name":"spender","type":"address"},{"internalType":"uint256","name":"addedValue","type":"uint256"}],"name":"increaseAllowance","outputs":[{"internalType":"bool","name":"","type":"bool"}],"stateMutability":"nonpayable","type":"function"},{"inputs":[{"internalType":"address","name":"forwarder","type":"address"}],"name":"isTrustedForwarder","outputs":[{"internalType":"bool","name":"","type":"bool"}],"stateMutability":"view","type":"function"},{"inputs":[{"internalType":"address","name":"to","type":"address"},{"internalType":"uint256","name":"amount","type":"uint256"}],"name":"mint","outputs":[],"stateMutability":"nonpayable","type":"function"},{"inputs":[],"name":"name","outputs":[{"internalType":"string","name":"","type":"string"}],"stateMutability":"view","type":"function"},{"inputs":[],"name":"pause","outputs":[],"stateMutability":"nonpayable","type":"function"},{"inputs":[],"name":"paused","outputs":[{"internalType":"bool","name":"","type":"bool"}],"stateMutability":"view","type":"function"},{"inputs":[{"internalType":"bytes32","name":"role","type":"bytes32"},{"internalType":"address","name":"account","type":"address"}],"name":"renounceRole","outputs":[],"stateMutability":"nonpayable","type":"function"},{"inputs":[{"internalType":"bytes32","name":"role","type":"bytes32"},{"internalType":"address","name":"account","type":"address"}],"name":"revokeRole","outputs":[],"stateMutability":"nonpayable","type":"function"},{"inputs":[{"internalType":"bytes4","name":"interfaceId","type":"bytes4"}],"name":"supportsInterface","outputs":[{"internalType":"bool","name":"","type":"bool"}],"stateMutability":"view","type":"function"},{"inputs":[],"name":"symbol","outputs":[{"internalType":"string","name":"","type":"string"}],"stateMutability":"view","type":"function"},{"inputs":[],"name":"totalSupply","outputs":[{"internalType":"uint256","name":"","type":"uint256"}],"stateMutability":"view","type":"function"},{"inputs":[{"internalType":"address","name":"to","type":"address"},{"internalType":"uint256","name":"amount","type":"uint256"}],"name":"transfer","outputs":[{"internalType":"bool","name":"","type":"bool"}],"stateMutability":"nonpayable","type":"function"},{"inputs":[{"internalType":"address","name":"from","type":"address"},{"internalType":"address","name":"to","type":"address"},{"internalType":"uint256","name":"amount","type":"uint256"}],"name":"transferFrom","outputs":[{"internalType":"bool","name":"","type":"bool"}],"stateMutability":"nonpayable","type":"function"},{"inputs":[],"name":"unpause","outputs":[],"stateMutability":"nonpayable","type":"function"}],"bytecode":"0x60a06040523480156200001157600080fd5b5060405162001905380380620019058339810160408190526200003491620002c2565b6040805180820182526007815266546f6b656e204160c81b60208083019182528351808501909452600380855262544b4160e81b918501919091526001600160a01b03851660805282519293926200008d92906200021c565b508051620000a39060049060208401906200021c565b50506005805460ff1916905550620000bd6000336200011c565b620000e97f65d7a28e3265b37a6474929f336521b332c1681b933f6cb9f3376673440d862a336200011c565b620001157f9f2df0fed2c77648de5860a4cc508cd0818c85b8b8a1ab4ceeef8d981c8956a6336200011c565b5062000331565b60008281526006602090815260408083206001600160a01b038516845290915290205460ff16620001bf5760008281526006602090815260408083206001600160a01b03851684529091529020805460ff191660011790556200017e620001c3565b6001600160a01b0316816001600160a01b0316837f2f8788117e7eff1d82e926ec794901d17c78024a50270940304540a733656f0d60405160405180910390a45b5050565b6000620001da620001df60201b620007fc1760201c565b905090565b6080516000906001600160a01b031633141562000203575060131936013560601c90565b620001da6200021860201b620008461760201c565b3390565b8280546200022a90620002f4565b90600052602060002090601f0160209004810192826200024e576000855562000299565b82601f106200026957805160ff191683800117855562000299565b8280016001018555821562000299579182015b82811115620002995782518255916020019190600101906200027c565b50620002a7929150620002ab565b5090565b5b80821115620002a75760008155600101620002ac565b600060208284031215620002d557600080fd5b81516001600160a01b0381168114620002ed57600080fd5b9392505050565b600181811c908216806200030957607f821691505b602082108114156200032b57634e487b7160e01b600052602260045260246000fd5b50919050565b6080516115b162000354600039600081816102ce015261080001526115b16000f3fe608060405234801561001057600080fd5b50600436106101a95760003560e01c8063572b6c05116100f9578063a217fddf11610097578063d539139311610071578063d539139314610396578063d547741f146103bd578063dd62ed3e146103d0578063e63ab1e9146103e357600080fd5b8063a217fddf14610368578063a457c2d714610370578063a9059cbb1461038357600080fd5b806379cc6790116100d357806379cc6790146103325780638456cb591461034557806391d148541461034d57806395d89b411461036057600080fd5b8063572b6c05146102be5780635c975abb146102fe57806370a082311461030957600080fd5b80632f2ff15d116101665780633950935111610140578063395093511461027d5780633f4ba83a1461029057806340c10f191461029857806342966c68146102ab57600080fd5b80632f2ff15d14610246578063313ce5671461025b57806336568abe1461026a57600080fd5b806301ffc9a7146101ae57806306fdde03146101d6578063095ea7b3146101eb57806318160ddd146101fe57806323b872dd14610210578063248a9ca314610223575b600080fd5b6101c16101bc36600461128f565b61040a565b60405190151581526020015b60405180910390f35b6101de610441565b6040516101cd91906112e5565b6101c16101f9366004611334565b6104d3565b6002545b6040519081526020016101cd565b6101c161021e36600461135e565b6104f5565b61020261023136600461139a565b60009081526006602052604090206001015490565b6102596102543660046113b3565b610523565b005b604051601281526020016101cd565b6102596102783660046113b3565b61054d565b6101c161028b366004611334565b6105e0565b61025961060c565b6102596102a6366004611334565b610641565b6102596102b936600461139a565b610675565b6101c16102cc3660046113df565b7f00000000000000000000000000000000000000000000000000000000000000006001600160a01b0390811691161490565b60055460ff166101c1565b6102026103173660046113df565b6001600160a01b031660009081526020819052604090205490565b610259610340366004611334565b610686565b6102596106a2565b6101c161035b3660046113b3565b6106d4565b6101de6106ff565b610202600081565b6101c161037e366004611334565b61070e565b6101c1610391366004611334565b610794565b6102027f9f2df0fed2c77648de5860a4cc508cd0818c85b8b8a1ab4ceeef8d981c8956a681565b6102596103cb3660046113b3565b6107ac565b6102026103de3660046113fa565b6107d1565b6102027f65d7a28e3265b37a6474929f336521b332c1681b933f6cb9f3376673440d862a81565b60006001600160e01b03198216637965db0b60e01b148061043b57506301ffc9a760e01b6001600160e01b03198316145b92915050565b60606003805461045090611424565b80601f016020809104026020016040519081016040528092919081815260200182805461047c90611424565b80156104c95780601f1061049e576101008083540402835291602001916104c9565b820191906000526020600020905b8154815290600101906020018083116104ac57829003601f168201915b5050505050905090565b6000806104de61084a565b90506104eb818585610854565b5060019392505050565b60008061050061084a565b905061050d858285610978565b6105188585856109f2565b506001949350505050565b60008281526006602052604090206001015461053e81610bcb565b6105488383610bdc565b505050565b61055561084a565b6001600160a01b0316816001600160a01b0316146105d25760405162461bcd60e51b815260206004820152602f60248201527f416363657373436f6e74726f6c3a2063616e206f6e6c792072656e6f756e636560448201526e103937b632b9903337b91039b2b63360891b60648201526084015b60405180910390fd5b6105dc8282610c63565b5050565b6000806105eb61084a565b90506104eb8185856105fd85896107d1565b6106079190611475565b610854565b7f65d7a28e3265b37a6474929f336521b332c1681b933f6cb9f3376673440d862a61063681610bcb565b61063e610ce8565b50565b7f9f2df0fed2c77648de5860a4cc508cd0818c85b8b8a1ab4ceeef8d981c8956a661066b81610bcb565b6105488383610d81565b61063e61068061084a565b82610e6c565b6106988261069261084a565b83610978565b6105dc8282610e6c565b7f65d7a28e3265b37a6474929f336521b332c1681b933f6cb9f3376673440d862a6106cc81610bcb565b61063e610fc6565b60009182526006602090815260408084206001600160a01b0393909316845291905290205460ff1690565b60606004805461045090611424565b60008061071961084a565b9050600061072782866107d1565b9050838110156107875760405162461bcd60e51b815260206004820152602560248201527f45524332303a2064656372656173656420616c6c6f77616e63652062656c6f77604482015264207a65726f60d81b60648201526084016105c9565b6105188286868403610854565b60008061079f61084a565b90506104eb8185856109f2565b6000828152600660205260409020600101546107c781610bcb565b6105488383610c63565b6001600160a01b03918216600090815260016020908152604080832093909416825291909152205490565b60007f00000000000000000000000000000000000000000000000000000000000000006001600160a01b031633141561083c575060131936013560601c90565b503390565b905090565b3390565b60006108416107fc565b6001600160a01b0383166108b65760405162461bcd60e51b8152602060048201526024808201527f45524332303a20617070726f76652066726f6d20746865207a65726f206164646044820152637265737360e01b60648201526084016105c9565b6001600160a01b0382166109175760405162461bcd60e51b815260206004820152602260248201527f45524332303a20617070726f766520746f20746865207a65726f206164647265604482015261737360f01b60648201526084016105c9565b6001600160a01b0383811660008181526001602090815260408083209487168084529482529182902085905590518481527f8c5be1e5ebec7d5bd14f71427d1e84f3dd0314c0f7b2291e5b200ac8c7c3b925910160405180910390a3505050565b600061098484846107d1565b905060001981146109ec57818110156109df5760405162461bcd60e51b815260206004820152601d60248201527f45524332303a20696e73756666696369656e7420616c6c6f77616e636500000060448201526064016105c9565b6109ec8484848403610854565b50505050565b6001600160a01b038316610a565760405162461bcd60e51b815260206004820152602560248201527f45524332303a207472616e736665722066726f6d20746865207a65726f206164604482015264647265737360d81b60648201526084016105c9565b6001600160a01b038216610ab85760405162461bcd60e51b815260206004820152602360248201527f45524332303a207472616e7366657220746f20746865207a65726f206164647260448201526265737360e81b60648201526084016105c9565b610ac3838383611042565b6001600160a01b03831660009081526020819052604090205481811015610b3b5760405162461bcd60e51b815260206004820152602660248201527f45524332303a207472616e7366657220616d6f756e7420657863656564732062604482015265616c616e636560d01b60648201526084016105c9565b6001600160a01b03808516600090815260208190526040808220858503905591851681529081208054849290610b72908490611475565b92505081905550826001600160a01b0316846001600160a01b03167fddf252ad1be2c89b69c2b068fc378daa952ba7f163c4a11628f55a4df523b3ef84604051610bbe91815260200190565b60405180910390a36109ec565b61063e81610bd761084a565b611088565b610be682826106d4565b6105dc5760008281526006602090815260408083206001600160a01b03851684529091529020805460ff19166001179055610c1f61084a565b6001600160a01b0316816001600160a01b0316837f2f8788117e7eff1d82e926ec794901d17c78024a50270940304540a733656f0d60405160405180910390a45050565b610c6d82826106d4565b156105dc5760008281526006602090815260408083206001600160a01b03851684529091529020805460ff19169055610ca461084a565b6001600160a01b0316816001600160a01b0316837ff6391f5c32d9c69d2a47ea670b442974b53935d1edc7fd64eb21e047a839171b60405160405180910390a45050565b60055460ff16610d315760405162461bcd60e51b815260206004820152601460248201527314185d5cd8589b194e881b9bdd081c185d5cd95960621b60448201526064016105c9565b6005805460ff191690557f5db9ee0a495bf2e6ff9c91a7834c1ba4fdd244a5e8aa4e537bd38aeae4b073aa610d6461084a565b6040516001600160a01b03909116815260200160405180910390a1565b6001600160a01b038216610dd75760405162461bcd60e51b815260206004820152601f60248201527f45524332303a206d696e7420746f20746865207a65726f20616464726573730060448201526064016105c9565b610de360008383611042565b8060026000828254610df59190611475565b90915550506001600160a01b03821660009081526020819052604081208054839290610e22908490611475565b90915550506040518181526001600160a01b038316906000907fddf252ad1be2c89b69c2b068fc378daa952ba7f163c4a11628f55a4df523b3ef9060200160405180910390a35050565b6001600160a01b038216610ecc5760405162461bcd60e51b815260206004820152602160248201527f45524332303a206275726e2066726f6d20746865207a65726f206164647265736044820152607360f81b60648201526084016105c9565b610ed882600083611042565b6001600160a01b03821660009081526020819052604090205481811015610f4c5760405162461bcd60e51b815260206004820152602260248201527f45524332303a206275726e20616d6f756e7420657863656564732062616c616e604482015261636560f01b60648201526084016105c9565b6001600160a01b0383166000908152602081905260408120838303905560028054849290610f7b90849061148d565b90915550506040518281526000906001600160a01b038516907fddf252ad1be2c89b69c2b068fc378daa952ba7f163c4a11628f55a4df523b3ef9060200160405180910390a3505050565b60055460ff161561100c5760405162461bcd60e51b815260206004820152601060248201526f14185d5cd8589b194e881c185d5cd95960821b60448201526064016105c9565b6005805460ff191660011790557f62e78cea01bee320cd4e420270b5ea74000d11b0c9f74754ebdbfc544b05a258610d6461084a565b60055460ff16156105485760405162461bcd60e51b815260206004820152601060248201526f14185d5cd8589b194e881c185d5cd95960821b60448201526064016105c9565b61109282826106d4565b6105dc576110aa816001600160a01b031660146110ec565b6110b58360206110ec565b6040516020016110c69291906114a4565b60408051601f198184030181529082905262461bcd60e51b82526105c9916004016112e5565b606060006110fb836002611519565b611106906002611475565b67ffffffffffffffff81111561111e5761111e611538565b6040519080825280601f01601f191660200182016040528015611148576020820181803683370190505b509050600360fc1b816000815181106111635761116361154e565b60200101906001600160f81b031916908160001a905350600f60fb1b816001815181106111925761119261154e565b60200101906001600160f81b031916908160001a90535060006111b6846002611519565b6111c1906001611475565b90505b6001811115611239576f181899199a1a9b1b9c1cb0b131b232b360811b85600f16601081106111f5576111f561154e565b1a60f81b82828151811061120b5761120b61154e565b60200101906001600160f81b031916908160001a90535060049490941c9361123281611564565b90506111c4565b5083156112885760405162461bcd60e51b815260206004820181905260248201527f537472696e67733a20686578206c656e67746820696e73756666696369656e7460448201526064016105c9565b9392505050565b6000602082840312156112a157600080fd5b81356001600160e01b03198116811461128857600080fd5b60005b838110156112d45781810151838201526020016112bc565b838111156109ec5750506000910152565b60208152600082518060208401526113048160408501602087016112b9565b601f01601f19169190910160400192915050565b80356001600160a01b038116811461132f57600080fd5b919050565b6000806040838503121561134757600080fd5b61135083611318565b946020939093013593505050565b60008060006060848603121561137357600080fd5b61137c84611318565b925061138a60208501611318565b9150604084013590509250925092565b6000602082840312156113ac57600080fd5b5035919050565b600080604083850312156113c657600080fd5b823591506113d660208401611318565b90509250929050565b6000602082840312156113f157600080fd5b61128882611318565b6000806040838503121561140d57600080fd5b61141683611318565b91506113d660208401611318565b600181811c9082168061143857607f821691505b6020821081141561145957634e487b7160e01b600052602260045260246000fd5b50919050565b634e487b7160e01b600052601160045260246000fd5b600082198211156114885761148861145f565b500190565b60008282101561149f5761149f61145f565b500390565b7f416363657373436f6e74726f6c3a206163636f756e74200000000000000000008152600083516114dc8160178501602088016112b9565b7001034b99036b4b9b9b4b733903937b6329607d1b601791840191820152835161150d8160288401602088016112b9565b01602801949350505050565b60008160001904831182151516156115335761153361145f565b500290565b634e487b7160e01b600052604160045260246000fd5b634e487b7160e01b600052603260045260246000fd5b6000816115735761157361145f565b50600019019056fea26469706673582212204930f899a8183b83fe2e302cf7960ed7de6b5c14d8932703ea12313564c5ad4164736f6c63430008090033","linkReferences":{},"deployedLinkReferences":{},"address":"0x3B6b2c278F01343687C3124546C4Ce6F531AADa0"}