{"_format":"hh-sol-artifact-1","contractName":"Wallet","sourceName":"contracts/Wallet.sol","abi":[{"inputs":[{"internalType":"contract IERC20","name":"_USDC","type":"address"}],"stateMutability":"nonpayable","type":"constructor"},{"anonymous":false,"inputs":[{"indexed":true,"internalType":"address","name":"previousOwner","type":"address"},{"indexed":true,"internalType":"address","name":"newOwner","type":"address"}],"name":"OwnershipTransferred","type":"event"},{"inputs":[],"name":"USDC","outputs":[{"internalType":"contract IERC20","name":"","type":"address"}],"stateMutability":"view","type":"function"},{"inputs":[{"internalType":"address[]","name":"tos","type":"address[]"},{"internalType":"uint256[]","name":"amounts","type":"uint256[]"}],"name":"bulkTransfer","outputs":[],"stateMutability":"nonpayable","type":"function"},{"inputs":[],"name":"owner","outputs":[{"internalType":"address","name":"","type":"address"}],"stateMutability":"view","type":"function"},{"inputs":[],"name":"renounceOwnership","outputs":[],"stateMutability":"nonpayable","type":"function"},{"inputs":[{"internalType":"address","name":"to","type":"address"},{"internalType":"uint256","name":"amount","type":"uint256"}],"name":"transfer","outputs":[],"stateMutability":"nonpayable","type":"function"},{"inputs":[{"internalType":"address","name":"newOwner","type":"address"}],"name":"transferOwnership","outputs":[],"stateMutability":"nonpayable","type":"function"}],"bytecode":"0x608060405234801561001057600080fd5b506040516106c13803806106c183398101604081905261002f916100ad565b6100383361005d565b600180546001600160a01b0319166001600160a01b03929092169190911790556100dd565b600080546001600160a01b038381166001600160a01b0319831681178455604051919092169283917f8be0079c531659141344cd1fd0a4f28419497f9722a3daafe3b4186f6b6457e09190a35050565b6000602082840312156100bf57600080fd5b81516001600160a01b03811681146100d657600080fd5b9392505050565b6105d5806100ec6000396000f3fe608060405234801561001057600080fd5b50600436106100625760003560e01c8063153a1f3e14610067578063715018a61461007c57806389a30271146100845780638da5cb5b146100b3578063a9059cbb146100c4578063f2fde38b146100d7575b600080fd5b61007a610075366004610435565b6100ea565b005b61007a610213565b600154610097906001600160a01b031681565b6040516001600160a01b03909116815260200160405180910390f35b6000546001600160a01b0316610097565b61007a6100d23660046104bd565b610249565b61007a6100e53660046104e7565b6102fe565b6000546001600160a01b0316331461011d5760405162461bcd60e51b815260040161011490610509565b60405180910390fd5b60005b8381101561020c576001546001600160a01b031663a9059cbb86868481811061014b5761014b61053e565b905060200201602081019061016091906104e7565b8585858181106101725761017261053e565b6040516001600160e01b031960e087901b1681526001600160a01b0390941660048501526020029190910135602483015250604401602060405180830381600087803b1580156101c157600080fd5b505af11580156101d5573d6000803e3d6000fd5b505050506040513d601f19601f820116820180604052508101906101f99190610554565b508061020481610576565b915050610120565b5050505050565b6000546001600160a01b0316331461023d5760405162461bcd60e51b815260040161011490610509565b6102476000610399565b565b6000546001600160a01b031633146102735760405162461bcd60e51b815260040161011490610509565b60015460405163a9059cbb60e01b81526001600160a01b038481166004830152602482018490529091169063a9059cbb90604401602060405180830381600087803b1580156102c157600080fd5b505af11580156102d5573d6000803e3d6000fd5b505050506040513d601f19601f820116820180604052508101906102f99190610554565b505050565b6000546001600160a01b031633146103285760405162461bcd60e51b815260040161011490610509565b6001600160a01b03811661038d5760405162461bcd60e51b815260206004820152602660248201527f4f776e61626c653a206e6577206f776e657220697320746865207a65726f206160448201526564647265737360d01b6064820152608401610114565b61039681610399565b50565b600080546001600160a01b038381166001600160a01b0319831681178455604051919092169283917f8be0079c531659141344cd1fd0a4f28419497f9722a3daafe3b4186f6b6457e09190a35050565b60008083601f8401126103fb57600080fd5b50813567ffffffffffffffff81111561041357600080fd5b6020830191508360208260051b850101111561042e57600080fd5b9250929050565b6000806000806040858703121561044b57600080fd5b843567ffffffffffffffff8082111561046357600080fd5b61046f888389016103e9565b9096509450602087013591508082111561048857600080fd5b50610495878288016103e9565b95989497509550505050565b80356001600160a01b03811681146104b857600080fd5b919050565b600080604083850312156104d057600080fd5b6104d9836104a1565b946020939093013593505050565b6000602082840312156104f957600080fd5b610502826104a1565b9392505050565b6020808252818101527f4f776e61626c653a2063616c6c6572206973206e6f7420746865206f776e6572604082015260600190565b634e487b7160e01b600052603260045260246000fd5b60006020828403121561056657600080fd5b8151801515811461050257600080fd5b600060001982141561059857634e487b7160e01b600052601160045260246000fd5b506001019056fea264697066735822122097ed53cc203adac997d207b92da6a5c2289873fcfe83ee730f0dd945c2f5d75864736f6c63430008090033","linkReferences":{},"deployedLinkReferences":{},"address":"0xAbEA8e84C35cf12BEff4eAdA7aa9590bDeA1a067"}